{
  "_format": "hh-sol-artifact-1",
  "contractName": "CourseCertificate",
  "sourceName": "contracts/Certificate.sol",
  "abi": [
    {
      "inputs": [
        {
          "internalType": "string",
          "name": "courseName",
          "type": "string"
        }
      ],
      "stateMutability": "nonpayable",
      "type": "constructor"
    },
    {
      "inputs": [],
      "name": "CourseCertificate__NotIssued",
      "type": "error"
    },
    {
      "inputs": [],
      "name": "CourseCertificate__NotOwner",
      "type": "error"
    },
    {
      "inputs": [
        {
          "internalType": "address",
          "name": "sender",
          "type": "address"
        },
        {
          "internalType": "uint256",
          "name": "tokenId",
          "type": "uint256"
        },
        {
          "internalType": "address",
          "name": "owner",
          "type": "address"
        }
      ],
      "name": "ERC721IncorrectOwner",
      "type": "error"
    },
    {
      "inputs": [
        {
          "internalType": "address",
          "name": "operator",
          "type": "address"
        },
        {
          "internalType": "uint256",
          "name": "tokenId",
          "type": "uint256"
        }
      ],
      "name": "ERC721InsufficientApproval",
      "type": "error"
    },
    {
      "inputs": [
        {
          "internalType": "address",
          "name": "approver",
          "type": "address"
        }
      ],
      "name": "ERC721InvalidApprover",
      "type": "error"
    },
    {
      "inputs": [
        {
          "internalType": "address",
          "name": "operator",
          "type": "address"
        }
      ],
      "name": "ERC721InvalidOperator",
      "type": "error"
    },
    {
      "inputs": [
        {
          "internalType": "address",
          "name": "owner",
          "type": "address"
        }
      ],
      "name": "ERC721InvalidOwner",
      "type": "error"
    },
    {
      "inputs": [
        {
          "internalType": "address",
          "name": "receiver",
          "type": "address"
        }
      ],
      "name": "ERC721InvalidReceiver",
      "type": "error"
    },
    {
      "inputs": [
        {
          "internalType": "address",
          "name": "sender",
          "type": "address"
        }
      ],
      "name": "ERC721InvalidSender",
      "type": "error"
    },
    {
      "inputs": [
        {
          "internalType": "uint256",
          "name": "tokenId",
          "type": "uint256"
        }
      ],
      "name": "ERC721NonexistentToken",
      "type": "error"
    },
    {
      "anonymous": false,
      "inputs": [
        {
          "indexed": true,
          "internalType": "address",
          "name": "owner",
          "type": "address"
        },
        {
          "indexed": true,
          "internalType": "address",
          "name": "approved",
          "type": "address"
        },
        {
          "indexed": true,
          "internalType": "uint256",
          "name": "tokenId",
          "type": "uint256"
        }
      ],
      "name": "Approval",
      "type": "event"
    },
    {
      "anonymous": false,
      "inputs": [
        {
          "indexed": true,
          "internalType": "address",
          "name": "owner",
          "type": "address"
        },
        {
          "indexed": true,
          "internalType": "address",
          "name": "operator",
          "type": "address"
        },
        {
          "indexed": false,
          "internalType": "bool",
          "name": "approved",
          "type": "bool"
        }
      ],
      "name": "ApprovalForAll",
      "type": "event"
    },
    {
      "anonymous": false,
      "inputs": [
        {
          "indexed": false,
          "internalType": "uint256",
          "name": "_fromTokenId",
          "type": "uint256"
        },
        {
          "indexed": false,
          "internalType": "uint256",
          "name": "_toTokenId",
          "type": "uint256"
        }
      ],
      "name": "BatchMetadataUpdate",
      "type": "event"
    },
    {
      "anonymous": false,
      "inputs": [
        {
          "indexed": false,
          "internalType": "address",
          "name": "student",
          "type": "address"
        }
      ],
      "name": "CertificateIssued",
      "type": "event"
    },
    {
      "anonymous": false,
      "inputs": [
        {
          "indexed": false,
          "internalType": "address",
          "name": "student",
          "type": "address"
        },
        {
          "indexed": false,
          "internalType": "uint256",
          "name": "tokenId",
          "type": "uint256"
        },
        {
          "indexed": false,
          "internalType": "string",
          "name": "tokenURI",
          "type": "string"
        }
      ],
      "name": "CertificateMinted",
      "type": "event"
    },
    {
      "anonymous": false,
      "inputs": [
        {
          "indexed": false,
          "internalType": "uint256",
          "name": "_tokenId",
          "type": "uint256"
        }
      ],
      "name": "MetadataUpdate",
      "type": "event"
    },
    {
      "anonymous": false,
      "inputs": [
        {
          "indexed": true,
          "internalType": "address",
          "name": "from",
          "type": "address"
        },
        {
          "indexed": true,
          "internalType": "address",
          "name": "to",
          "type": "address"
        },
        {
          "indexed": true,
          "internalType": "uint256",
          "name": "tokenId",
          "type": "uint256"
        }
      ],
      "name": "Transfer",
      "type": "event"
    },
    {
      "inputs": [
        {
          "internalType": "address",
          "name": "to",
          "type": "address"
        },
        {
          "internalType": "uint256",
          "name": "tokenId",
          "type": "uint256"
        }
      ],
      "name": "approve",
      "outputs": [],
      "stateMutability": "nonpayable",
      "type": "function"
    },
    {
      "inputs": [
        {
          "internalType": "address",
          "name": "owner",
          "type": "address"
        }
      ],
      "name": "balanceOf",
      "outputs": [
        {
          "internalType": "uint256",
          "name": "",
          "type": "uint256"
        }
      ],
      "stateMutability": "view",
      "type": "function"
    },
    {
      "inputs": [
        {
          "internalType": "address",
          "name": "student",
          "type": "address"
        }
      ],
      "name": "checkCertificateOfStudent",
      "outputs": [
        {
          "internalType": "string",
          "name": "",
          "type": "string"
        }
      ],
      "stateMutability": "view",
      "type": "function"
    },
    {
      "inputs": [
        {
          "internalType": "uint256",
          "name": "tokenId",
          "type": "uint256"
        }
      ],
      "name": "getApproved",
      "outputs": [
        {
          "internalType": "address",
          "name": "",
          "type": "address"
        }
      ],
      "stateMutability": "view",
      "type": "function"
    },
    {
      "inputs": [],
      "name": "getCourseName",
      "outputs": [
        {
          "internalType": "string",
          "name": "",
          "type": "string"
        }
      ],
      "stateMutability": "view",
      "type": "function"
    },
    {
      "inputs": [],
      "name": "getOwner",
      "outputs": [
        {
          "internalType": "address",
          "name": "",
          "type": "address"
        }
      ],
      "stateMutability": "view",
      "type": "function"
    },
    {
      "inputs": [],
      "name": "getTokenCounter",
      "outputs": [
        {
          "internalType": "uint256",
          "name": "",
          "type": "uint256"
        }
      ],
      "stateMutability": "view",
      "type": "function"
    },
    {
      "inputs": [
        {
          "internalType": "address",
          "name": "owner",
          "type": "address"
        },
        {
          "internalType": "address",
          "name": "operator",
          "type": "address"
        }
      ],
      "name": "isApprovedForAll",
      "outputs": [
        {
          "internalType": "bool",
          "name": "",
          "type": "bool"
        }
      ],
      "stateMutability": "view",
      "type": "function"
    },
    {
      "inputs": [
        {
          "internalType": "address",
          "name": "student",
          "type": "address"
        }
      ],
      "name": "isStudentCertificateIssued",
      "outputs": [
        {
          "internalType": "bool",
          "name": "",
          "type": "bool"
        }
      ],
      "stateMutability": "view",
      "type": "function"
    },
    {
      "inputs": [
        {
          "internalType": "address",
          "name": "student",
          "type": "address"
        },
        {
          "internalType": "string",
          "name": "courseName",
          "type": "string"
        }
      ],
      "name": "issueCertificate",
      "outputs": [],
      "stateMutability": "nonpayable",
      "type": "function"
    },
    {
      "inputs": [
        {
          "internalType": "string",
          "name": "ocid",
          "type": "string"
        }
      ],
      "name": "mintCertificate",
      "outputs": [
        {
          "internalType": "uint256",
          "name": "",
          "type": "uint256"
        }
      ],
      "stateMutability": "nonpayable",
      "type": "function"
    },
    {
      "inputs": [],
      "name": "name",
      "outputs": [
        {
          "internalType": "string",
          "name": "",
          "type": "string"
        }
      ],
      "stateMutability": "view",
      "type": "function"
    },
    {
      "inputs": [
        {
          "internalType": "uint256",
          "name": "tokenId",
          "type": "uint256"
        }
      ],
      "name": "ownerOf",
      "outputs": [
        {
          "internalType": "address",
          "name": "",
          "type": "address"
        }
      ],
      "stateMutability": "view",
      "type": "function"
    },
    {
      "inputs": [
        {
          "internalType": "address",
          "name": "from",
          "type": "address"
        },
        {
          "internalType": "address",
          "name": "to",
          "type": "address"
        },
        {
          "internalType": "uint256",
          "name": "tokenId",
          "type": "uint256"
        }
      ],
      "name": "safeTransferFrom",
      "outputs": [],
      "stateMutability": "nonpayable",
      "type": "function"
    },
    {
      "inputs": [
        {
          "internalType": "address",
          "name": "from",
          "type": "address"
        },
        {
          "internalType": "address",
          "name": "to",
          "type": "address"
        },
        {
          "internalType": "uint256",
          "name": "tokenId",
          "type": "uint256"
        },
        {
          "internalType": "bytes",
          "name": "data",
          "type": "bytes"
        }
      ],
      "name": "safeTransferFrom",
      "outputs": [],
      "stateMutability": "nonpayable",
      "type": "function"
    },
    {
      "inputs": [
        {
          "internalType": "address",
          "name": "operator",
          "type": "address"
        },
        {
          "internalType": "bool",
          "name": "approved",
          "type": "bool"
        }
      ],
      "name": "setApprovalForAll",
      "outputs": [],
      "stateMutability": "nonpayable",
      "type": "function"
    },
    {
      "inputs": [
        {
          "internalType": "bytes4",
          "name": "interfaceId",
          "type": "bytes4"
        }
      ],
      "name": "supportsInterface",
      "outputs": [
        {
          "internalType": "bool",
          "name": "",
          "type": "bool"
        }
      ],
      "stateMutability": "view",
      "type": "function"
    },
    {
      "inputs": [],
      "name": "symbol",
      "outputs": [
        {
          "internalType": "string",
          "name": "",
          "type": "string"
        }
      ],
      "stateMutability": "view",
      "type": "function"
    },
    {
      "inputs": [
        {
          "internalType": "uint256",
          "name": "tokenId",
          "type": "uint256"
        }
      ],
      "name": "tokenURI",
      "outputs": [
        {
          "internalType": "string",
          "name": "",
          "type": "string"
        }
      ],
      "stateMutability": "view",
      "type": "function"
    },
    {
      "inputs": [
        {
          "internalType": "address",
          "name": "from",
          "type": "address"
        },
        {
          "internalType": "address",
          "name": "to",
          "type": "address"
        },
        {
          "internalType": "uint256",
          "name": "tokenId",
          "type": "uint256"
        }
      ],
      "name": "transferFrom",
      "outputs": [],
      "stateMutability": "nonpayable",
      "type": "function"
    }
  ],
  "bytecode": "0x608060405234801562000010575f80fd5b5060405162003822380380620038228339818101604052810190620000369190620002ac565b6040518060400160405280601f81526020017f436f757273654365727469666963617465536f756c426f756e64546f6b656e008152506040518060400160405280600581526020017f4343534254000000000000000000000000000000000000000000000000000000815250815f9081620000b2919062000532565b508060019081620000c4919062000532565b5050508060079081620000d8919062000532565b503360085f6101000a81548173ffffffffffffffffffffffffffffffffffffffff021916908373ffffffffffffffffffffffffffffffffffffffff1602179055505f600b819055505062000616565b5f604051905090565b5f80fd5b5f80fd5b5f80fd5b5f80fd5b5f601f19601f8301169050919050565b7f4e487b71000000000000000000000000000000000000000000000000000000005f52604160045260245ffd5b620001888262000140565b810181811067ffffffffffffffff82111715620001aa57620001a962000150565b5b80604052505050565b5f620001be62000127565b9050620001cc82826200017d565b919050565b5f67ffffffffffffffff821115620001ee57620001ed62000150565b5b620001f98262000140565b9050602081019050919050565b5f5b838110156200022557808201518184015260208101905062000208565b5f8484015250505050565b5f620002466200024084620001d1565b620001b3565b9050828152602081018484840111156200026557620002646200013c565b5b6200027284828562000206565b509392505050565b5f82601f83011262000291576200029062000138565b5b8151620002a384826020860162000230565b91505092915050565b5f60208284031215620002c457620002c362000130565b5b5f82015167ffffffffffffffff811115620002e457620002e362000134565b5b620002f2848285016200027a565b91505092915050565b5f81519050919050565b7f4e487b71000000000000000000000000000000000000000000000000000000005f52602260045260245ffd5b5f60028204905060018216806200034a57607f821691505b60208210810362000360576200035f62000305565b5b50919050565b5f819050815f5260205f209050919050565b5f6020601f8301049050919050565b5f82821b905092915050565b5f60088302620003c47fffffffffffffffffffffffffffffffffffffffffffffffffffffffffffffffff8262000387565b620003d0868362000387565b95508019841693508086168417925050509392505050565b5f819050919050565b5f819050919050565b5f6200041a620004146200040e84620003e8565b620003f1565b620003e8565b9050919050565b5f819050919050565b6200043583620003fa565b6200044d620004448262000421565b84845462000393565b825550505050565b5f90565b6200046362000455565b620004708184846200042a565b505050565b5b8181101562000497576200048b5f8262000459565b60018101905062000476565b5050565b601f821115620004e657620004b08162000366565b620004bb8462000378565b81016020851015620004cb578190505b620004e3620004da8562000378565b83018262000475565b50505b505050565b5f82821c905092915050565b5f620005085f1984600802620004eb565b1980831691505092915050565b5f620005228383620004f7565b9150826002028217905092915050565b6200053d82620002fb565b67ffffffffffffffff81111562000559576200055862000150565b5b62000565825462000332565b620005728282856200049b565b5f60209050601f831160018114620005a8575f841562000593578287015190505b6200059f858262000515565b8655506200060e565b601f198416620005b88662000366565b5f5b82811015620005e157848901518255600182019150602085019450602081019050620005ba565b86831015620006015784890151620005fd601f891682620004f7565b8355505b6001600288020188555050505b505050505050565b6131fe80620006245f395ff3fe608060405234801561000f575f80fd5b506004361061012a575f3560e01c806385b01b27116100ab578063b88d4fde1161006f578063b88d4fde14610354578063bb721aab14610370578063c87b56dd1461038c578063e3a88109146103bc578063e985e9c5146103ec5761012a565b806385b01b27146102ae578063893d20e8146102de57806395d89b41146102fc578063a22cb4651461031a578063acf2b4e7146103365761012a565b806323b872dd116100f257806323b872dd146101f857806342842e0e146102145780636352211e146102305780636e02007d1461026057806370a082311461027e5761012a565b806301ffc9a71461012e57806306fdde031461015e578063081812fc1461017c578063095ea7b3146101ac5780631770b1f7146101c8575b5f80fd5b61014860048036038101906101439190611f95565b61041c565b6040516101559190611fda565b60405180910390f35b61016661047c565b604051610173919061207d565b60405180910390f35b610196600480360381019061019191906120d0565b61050b565b6040516101a3919061213a565b60405180910390f35b6101c660048036038101906101c1919061217d565b610526565b005b6101e260048036038101906101dd91906121bb565b61053c565b6040516101ef919061207d565b60405180910390f35b610212600480360381019061020d91906121e6565b610609565b005b61022e600480360381019061022991906121e6565b610708565b005b61024a600480360381019061024591906120d0565b610727565b604051610257919061213a565b60405180910390f35b610268610738565b6040516102759190612245565b60405180910390f35b610298600480360381019061029391906121bb565b610741565b6040516102a59190612245565b60405180910390f35b6102c860048036038101906102c391906121bb565b6107f7565b6040516102d59190611fda565b60405180910390f35b6102e6610849565b6040516102f3919061213a565b60405180910390f35b610304610871565b604051610311919061207d565b60405180910390f35b610334600480360381019061032f9190612288565b610901565b005b61033e610917565b60405161034b919061207d565b60405180910390f35b61036e600480360381019061036991906123f2565b6109a7565b005b61038a60048036038101906103859190612510565b6109c4565b005b6103a660048036038101906103a191906120d0565b610b60565b6040516103b3919061207d565b60405180910390f35b6103d660048036038101906103d1919061256a565b610c6b565b6040516103e39190612245565b60405180910390f35b610406600480360381019061040191906125b1565b610e27565b6040516104139190611fda565b60405180910390f35b5f634906490660e01b7bffffffffffffffffffffffffffffffffffffffffffffffffffffffff1916827bffffffffffffffffffffffffffffffffffffffffffffffffffffffff19161480610475575061047482610eb5565b5b9050919050565b60605f805461048a9061261c565b80601f01602080910402602001604051908101604052809291908181526020018280546104b69061261c565b80156105015780601f106104d857610100808354040283529160200191610501565b820191905f5260205f20905b8154815290600101906020018083116104e457829003601f168201915b5050505050905090565b5f61051582610f96565b5061051f8261101c565b9050919050565b6105388282610533611055565b61105c565b5050565b6060600a5f8373ffffffffffffffffffffffffffffffffffffffff1673ffffffffffffffffffffffffffffffffffffffff1681526020019081526020015f2080546105869061261c565b80601f01602080910402602001604051908101604052809291908181526020018280546105b29061261c565b80156105fd5780601f106105d4576101008083540402835291602001916105fd565b820191905f5260205f20905b8154815290600101906020018083116105e057829003601f168201915b50505050509050919050565b5f73ffffffffffffffffffffffffffffffffffffffff168273ffffffffffffffffffffffffffffffffffffffff1603610679575f6040517f64a0ae92000000000000000000000000000000000000000000000000000000008152600401610670919061213a565b60405180910390fd5b5f61068c8383610687611055565b61106e565b90508373ffffffffffffffffffffffffffffffffffffffff168173ffffffffffffffffffffffffffffffffffffffff1614610702578382826040517f64283d7b0000000000000000000000000000000000000000000000000000000081526004016106f99392919061264c565b60405180910390fd5b50505050565b61072283838360405180602001604052805f8152506109a7565b505050565b5f61073182610f96565b9050919050565b5f600b54905090565b5f8073ffffffffffffffffffffffffffffffffffffffff168273ffffffffffffffffffffffffffffffffffffffff16036107b2575f6040517f89c62b640000000000000000000000000000000000000000000000000000000081526004016107a9919061213a565b60405180910390fd5b60035f8373ffffffffffffffffffffffffffffffffffffffff1673ffffffffffffffffffffffffffffffffffffffff1681526020019081526020015f20549050919050565b5f60095f8373ffffffffffffffffffffffffffffffffffffffff1673ffffffffffffffffffffffffffffffffffffffff1681526020019081526020015f205f9054906101000a900460ff169050919050565b5f60085f9054906101000a900473ffffffffffffffffffffffffffffffffffffffff16905090565b6060600180546108809061261c565b80601f01602080910402602001604051908101604052809291908181526020018280546108ac9061261c565b80156108f75780601f106108ce576101008083540402835291602001916108f7565b820191905f5260205f20905b8154815290600101906020018083116108da57829003601f168201915b5050505050905090565b61091361090c611055565b8383611279565b5050565b6060600780546109269061261c565b80601f01602080910402602001604051908101604052809291908181526020018280546109529061261c565b801561099d5780601f106109745761010080835404028352916020019161099d565b820191905f5260205f20905b81548152906001019060200180831161098057829003601f168201915b5050505050905090565b6109b2848484610609565b6109be848484846113e2565b50505050565b60085f9054906101000a900473ffffffffffffffffffffffffffffffffffffffff1673ffffffffffffffffffffffffffffffffffffffff163373ffffffffffffffffffffffffffffffffffffffff1614610a4a576040517f7763105900000000000000000000000000000000000000000000000000000000815260040160405180910390fd5b80604051602001610a5b91906126bb565b604051602081830303815290604052805190602001206007604051602001610a839190612763565b6040516020818303038152906040528051906020012014610ad0576040517f1d57bda100000000000000000000000000000000000000000000000000000000815260040160405180910390fd5b600160095f8473ffffffffffffffffffffffffffffffffffffffff1673ffffffffffffffffffffffffffffffffffffffff1681526020019081526020015f205f6101000a81548160ff0219169083151502179055507f415ffddd5c0c3058e868a0b47e0a33db469bd6c5193ebcb5a4c1337f36acf52882604051610b54919061213a565b60405180910390a15050565b6060610b6b82610f96565b505f60065f8481526020019081526020015f208054610b899061261c565b80601f0160208091040260200160405190810160405280929190818152602001828054610bb59061261c565b8015610c005780601f10610bd757610100808354040283529160200191610c00565b820191905f5260205f20905b815481529060010190602001808311610be357829003601f168201915b505050505090505f610c10611594565b90505f815103610c24578192505050610c66565b5f82511115610c58578082604051602001610c40929190612779565b60405160208183030381529060405292505050610c66565b610c61846115aa565b925050505b919050565b5f60095f3373ffffffffffffffffffffffffffffffffffffffff1673ffffffffffffffffffffffffffffffffffffffff1681526020019081526020015f205f9054906101000a900460ff16610cec576040517f1d57bda100000000000000000000000000000000000000000000000000000000815260040160405180910390fd5b6001600b5f828254610cfe91906127c9565b925050819055505f600b549050610d153382611610565b5f610d208285611703565b9050610d2c8282611769565b5f60095f3373ffffffffffffffffffffffffffffffffffffffff1673ffffffffffffffffffffffffffffffffffffffff1681526020019081526020015f205f6101000a81548160ff02191690831515021790555080600a5f3373ffffffffffffffffffffffffffffffffffffffff1673ffffffffffffffffffffffffffffffffffffffff1681526020019081526020015f209081610dca9190612987565b50610dd3610917565b60079081610de19190612987565b507fde5d6fd45e32fffb472bcbaeedf6a2e3944633c9701eec7d99adfa07ad6104c1338383604051610e1593929190612a56565b60405180910390a18192505050919050565b5f60055f8473ffffffffffffffffffffffffffffffffffffffff1673ffffffffffffffffffffffffffffffffffffffff1681526020019081526020015f205f8373ffffffffffffffffffffffffffffffffffffffff1673ffffffffffffffffffffffffffffffffffffffff1681526020019081526020015f205f9054906101000a900460ff16905092915050565b5f7f80ac58cd000000000000000000000000000000000000000000000000000000007bffffffffffffffffffffffffffffffffffffffffffffffffffffffff1916827bffffffffffffffffffffffffffffffffffffffffffffffffffffffff19161480610f7f57507f5b5e139f000000000000000000000000000000000000000000000000000000007bffffffffffffffffffffffffffffffffffffffffffffffffffffffff1916827bffffffffffffffffffffffffffffffffffffffffffffffffffffffff1916145b80610f8f5750610f8e826117c3565b5b9050919050565b5f80610fa18361182c565b90505f73ffffffffffffffffffffffffffffffffffffffff168173ffffffffffffffffffffffffffffffffffffffff160361101357826040517f7e27328900000000000000000000000000000000000000000000000000000000815260040161100a9190612245565b60405180910390fd5b80915050919050565b5f60045f8381526020019081526020015f205f9054906101000a900473ffffffffffffffffffffffffffffffffffffffff169050919050565b5f33905090565b6110698383836001611865565b505050565b5f806110798461182c565b90505f73ffffffffffffffffffffffffffffffffffffffff168373ffffffffffffffffffffffffffffffffffffffff16146110ba576110b9818486611a24565b5b5f73ffffffffffffffffffffffffffffffffffffffff168173ffffffffffffffffffffffffffffffffffffffff1614611145576110f95f855f80611865565b600160035f8373ffffffffffffffffffffffffffffffffffffffff1673ffffffffffffffffffffffffffffffffffffffff1681526020019081526020015f205f82825403925050819055505b5f73ffffffffffffffffffffffffffffffffffffffff168573ffffffffffffffffffffffffffffffffffffffff16146111c457600160035f8773ffffffffffffffffffffffffffffffffffffffff1673ffffffffffffffffffffffffffffffffffffffff1681526020019081526020015f205f82825401925050819055505b8460025f8681526020019081526020015f205f6101000a81548173ffffffffffffffffffffffffffffffffffffffff021916908373ffffffffffffffffffffffffffffffffffffffff160217905550838573ffffffffffffffffffffffffffffffffffffffff168273ffffffffffffffffffffffffffffffffffffffff167fddf252ad1be2c89b69c2b068fc378daa952ba7f163c4a11628f55a4df523b3ef60405160405180910390a4809150509392505050565b5f73ffffffffffffffffffffffffffffffffffffffff168273ffffffffffffffffffffffffffffffffffffffff16036112e957816040517f5b08ba180000000000000000000000000000000000000000000000000000000081526004016112e0919061213a565b60405180910390fd5b8060055f8573ffffffffffffffffffffffffffffffffffffffff1673ffffffffffffffffffffffffffffffffffffffff1681526020019081526020015f205f8473ffffffffffffffffffffffffffffffffffffffff1673ffffffffffffffffffffffffffffffffffffffff1681526020019081526020015f205f6101000a81548160ff0219169083151502179055508173ffffffffffffffffffffffffffffffffffffffff168373ffffffffffffffffffffffffffffffffffffffff167f17307eab39ab6107e8899845ad3d59bd9653f200f220920489ca2b5937696c31836040516113d59190611fda565b60405180910390a3505050565b5f8373ffffffffffffffffffffffffffffffffffffffff163b111561158e578273ffffffffffffffffffffffffffffffffffffffff1663150b7a02611425611055565b8685856040518563ffffffff1660e01b81526004016114479493929190612ae4565b6020604051808303815f875af192505050801561148257506040513d601f19601f8201168201806040525081019061147f9190612b42565b60015b611503573d805f81146114b0576040519150601f19603f3d011682016040523d82523d5f602084013e6114b5565b606091505b505f8151036114fb57836040517f64a0ae920000000000000000000000000000000000000000000000000000000081526004016114f2919061213a565b60405180910390fd5b805181602001fd5b63150b7a0260e01b7bffffffffffffffffffffffffffffffffffffffffffffffffffffffff1916817bffffffffffffffffffffffffffffffffffffffffffffffffffffffff19161461158c57836040517f64a0ae92000000000000000000000000000000000000000000000000000000008152600401611583919061213a565b60405180910390fd5b505b50505050565b606060405180602001604052805f815250905090565b60606115b582610f96565b505f6115bf611594565b90505f8151116115dd5760405180602001604052805f815250611608565b806115e784611ae7565b6040516020016115f8929190612779565b6040516020818303038152906040525b915050919050565b5f73ffffffffffffffffffffffffffffffffffffffff168273ffffffffffffffffffffffffffffffffffffffff1603611680575f6040517f64a0ae92000000000000000000000000000000000000000000000000000000008152600401611677919061213a565b60405180910390fd5b5f61168c83835f61106e565b90505f73ffffffffffffffffffffffffffffffffffffffff168173ffffffffffffffffffffffffffffffffffffffff16146116fe575f6040517f73c6ac6e0000000000000000000000000000000000000000000000000000000081526004016116f5919061213a565b60405180910390fd5b505050565b60605f600761171185611ae7565b6007856040516020016117279493929190612f55565b604051602081830303815290604052905061174181611bb1565b60405160200161175191906130a2565b60405160208183030381529060405291505092915050565b8060065f8481526020019081526020015f2090816117879190612987565b507ff8e1a15aba9398e019f0b49df1a4fde98ee17ae345cb5f6b5e2c27f5033e8ce7826040516117b79190612245565b60405180910390a15050565b5f7f01ffc9a7000000000000000000000000000000000000000000000000000000007bffffffffffffffffffffffffffffffffffffffffffffffffffffffff1916827bffffffffffffffffffffffffffffffffffffffffffffffffffffffff1916149050919050565b5f60025f8381526020019081526020015f205f9054906101000a900473ffffffffffffffffffffffffffffffffffffffff169050919050565b808061189d57505f73ffffffffffffffffffffffffffffffffffffffff168273ffffffffffffffffffffffffffffffffffffffff1614155b156119cf575f6118ac84610f96565b90505f73ffffffffffffffffffffffffffffffffffffffff168373ffffffffffffffffffffffffffffffffffffffff161415801561191657508273ffffffffffffffffffffffffffffffffffffffff168173ffffffffffffffffffffffffffffffffffffffff1614155b801561192957506119278184610e27565b155b1561196b57826040517fa9fbf51f000000000000000000000000000000000000000000000000000000008152600401611962919061213a565b60405180910390fd5b81156119cd57838573ffffffffffffffffffffffffffffffffffffffff168273ffffffffffffffffffffffffffffffffffffffff167f8c5be1e5ebec7d5bd14f71427d1e84f3dd0314c0f7b2291e5b200ac8c7c3b92560405160405180910390a45b505b8360045f8581526020019081526020015f205f6101000a81548173ffffffffffffffffffffffffffffffffffffffff021916908373ffffffffffffffffffffffffffffffffffffffff16021790555050505050565b611a2f838383611d1e565b611ae2575f73ffffffffffffffffffffffffffffffffffffffff168373ffffffffffffffffffffffffffffffffffffffff1603611aa357806040517f7e273289000000000000000000000000000000000000000000000000000000008152600401611a9a9190612245565b60405180910390fd5b81816040517f177e802f000000000000000000000000000000000000000000000000000000008152600401611ad99291906130c3565b60405180910390fd5b505050565b60605f6001611af584611dde565b0190505f8167ffffffffffffffff811115611b1357611b126122ce565b5b6040519080825280601f01601f191660200182016040528015611b455781602001600182028036833780820191505090505b5090505f82602001820190505b600115611ba6578080600190039150507f3031323334353637383961626364656600000000000000000000000000000000600a86061a8153600a8581611b9b57611b9a6130ea565b5b0494505f8503611b52575b819350505050919050565b60605f825103611bd15760405180602001604052805f8152509050611d19565b5f6040518060600160405280604081526020016131896040913990505f600360028551611bfe91906127c9565b611c089190613117565b6004611c149190613147565b67ffffffffffffffff811115611c2d57611c2c6122ce565b5b6040519080825280601f01601f191660200182016040528015611c5f5781602001600182028036833780820191505090505b509050600182016020820185865187016020810180515f82525b82841015611cd4576003840193508351603f8160121c168701518653600186019550603f81600c1c168701518653600186019550603f8160061c168701518653600186019550603f8116870151865360018601955050611c79565b80825260038a510660018114611cf15760028114611d0457611d0c565b603d6001870353603d6002870353611d0c565b603d60018703535b5050505050505080925050505b919050565b5f8073ffffffffffffffffffffffffffffffffffffffff168373ffffffffffffffffffffffffffffffffffffffff1614158015611dd557508273ffffffffffffffffffffffffffffffffffffffff168473ffffffffffffffffffffffffffffffffffffffff161480611d965750611d958484610e27565b5b80611dd457508273ffffffffffffffffffffffffffffffffffffffff16611dbc8361101c565b73ffffffffffffffffffffffffffffffffffffffff16145b5b90509392505050565b5f805f90507a184f03e93ff9f4daa797ed6e38ed64bf6a1f0100000000000000008310611e3a577a184f03e93ff9f4daa797ed6e38ed64bf6a1f0100000000000000008381611e3057611e2f6130ea565b5b0492506040810190505b6d04ee2d6d415b85acef81000000008310611e77576d04ee2d6d415b85acef81000000008381611e6d57611e6c6130ea565b5b0492506020810190505b662386f26fc100008310611ea657662386f26fc100008381611e9c57611e9b6130ea565b5b0492506010810190505b6305f5e1008310611ecf576305f5e1008381611ec557611ec46130ea565b5b0492506008810190505b6127108310611ef4576127108381611eea57611ee96130ea565b5b0492506004810190505b60648310611f175760648381611f0d57611f0c6130ea565b5b0492506002810190505b600a8310611f26576001810190505b80915050919050565b5f604051905090565b5f80fd5b5f80fd5b5f7fffffffff0000000000000000000000000000000000000000000000000000000082169050919050565b611f7481611f40565b8114611f7e575f80fd5b50565b5f81359050611f8f81611f6b565b92915050565b5f60208284031215611faa57611fa9611f38565b5b5f611fb784828501611f81565b91505092915050565b5f8115159050919050565b611fd481611fc0565b82525050565b5f602082019050611fed5f830184611fcb565b92915050565b5f81519050919050565b5f82825260208201905092915050565b5f5b8381101561202a57808201518184015260208101905061200f565b5f8484015250505050565b5f601f19601f8301169050919050565b5f61204f82611ff3565b6120598185611ffd565b935061206981856020860161200d565b61207281612035565b840191505092915050565b5f6020820190508181035f8301526120958184612045565b905092915050565b5f819050919050565b6120af8161209d565b81146120b9575f80fd5b50565b5f813590506120ca816120a6565b92915050565b5f602082840312156120e5576120e4611f38565b5b5f6120f2848285016120bc565b91505092915050565b5f73ffffffffffffffffffffffffffffffffffffffff82169050919050565b5f612124826120fb565b9050919050565b6121348161211a565b82525050565b5f60208201905061214d5f83018461212b565b92915050565b61215c8161211a565b8114612166575f80fd5b50565b5f8135905061217781612153565b92915050565b5f806040838503121561219357612192611f38565b5b5f6121a085828601612169565b92505060206121b1858286016120bc565b9150509250929050565b5f602082840312156121d0576121cf611f38565b5b5f6121dd84828501612169565b91505092915050565b5f805f606084860312156121fd576121fc611f38565b5b5f61220a86828701612169565b935050602061221b86828701612169565b925050604061222c868287016120bc565b9150509250925092565b61223f8161209d565b82525050565b5f6020820190506122585f830184612236565b92915050565b61226781611fc0565b8114612271575f80fd5b50565b5f813590506122828161225e565b92915050565b5f806040838503121561229e5761229d611f38565b5b5f6122ab85828601612169565b92505060206122bc85828601612274565b9150509250929050565b5f80fd5b5f80fd5b7f4e487b71000000000000000000000000000000000000000000000000000000005f52604160045260245ffd5b61230482612035565b810181811067ffffffffffffffff82111715612323576123226122ce565b5b80604052505050565b5f612335611f2f565b905061234182826122fb565b919050565b5f67ffffffffffffffff8211156123605761235f6122ce565b5b61236982612035565b9050602081019050919050565b828183375f83830152505050565b5f61239661239184612346565b61232c565b9050828152602081018484840111156123b2576123b16122ca565b5b6123bd848285612376565b509392505050565b5f82601f8301126123d9576123d86122c6565b5b81356123e9848260208601612384565b91505092915050565b5f805f806080858703121561240a57612409611f38565b5b5f61241787828801612169565b945050602061242887828801612169565b9350506040612439878288016120bc565b925050606085013567ffffffffffffffff81111561245a57612459611f3c565b5b612466878288016123c5565b91505092959194509250565b5f67ffffffffffffffff82111561248c5761248b6122ce565b5b61249582612035565b9050602081019050919050565b5f6124b46124af84612472565b61232c565b9050828152602081018484840111156124d0576124cf6122ca565b5b6124db848285612376565b509392505050565b5f82601f8301126124f7576124f66122c6565b5b81356125078482602086016124a2565b91505092915050565b5f806040838503121561252657612525611f38565b5b5f61253385828601612169565b925050602083013567ffffffffffffffff81111561255457612553611f3c565b5b612560858286016124e3565b9150509250929050565b5f6020828403121561257f5761257e611f38565b5b5f82013567ffffffffffffffff81111561259c5761259b611f3c565b5b6125a8848285016124e3565b91505092915050565b5f80604083850312156125c7576125c6611f38565b5b5f6125d485828601612169565b92505060206125e585828601612169565b9150509250929050565b7f4e487b71000000000000000000000000000000000000000000000000000000005f52602260045260245ffd5b5f600282049050600182168061263357607f821691505b602082108103612646576126456125ef565b5b50919050565b5f60608201905061265f5f83018661212b565b61266c6020830185612236565b612679604083018461212b565b949350505050565b5f81905092915050565b5f61269582611ff3565b61269f8185612681565b93506126af81856020860161200d565b80840191505092915050565b5f6126c6828461268b565b915081905092915050565b5f819050815f5260205f209050919050565b5f81546126ef8161261c565b6126f98186612681565b9450600182165f811461271357600181146127285761275a565b60ff198316865281151582028601935061275a565b612731856126d1565b5f5b8381101561275257815481890152600182019150602081019050612733565b838801955050505b50505092915050565b5f61276e82846126e3565b915081905092915050565b5f612784828561268b565b9150612790828461268b565b91508190509392505050565b7f4e487b71000000000000000000000000000000000000000000000000000000005f52601160045260245ffd5b5f6127d38261209d565b91506127de8361209d565b92508282019050808211156127f6576127f561279c565b5b92915050565b5f6020601f8301049050919050565b5f82821b905092915050565b5f600883026128467fffffffffffffffffffffffffffffffffffffffffffffffffffffffffffffffff8261280b565b612850868361280b565b95508019841693508086168417925050509392505050565b5f819050919050565b5f61288b6128866128818461209d565b612868565b61209d565b9050919050565b5f819050919050565b6128a483612871565b6128b86128b082612892565b848454612817565b825550505050565b5f90565b6128cc6128c0565b6128d781848461289b565b505050565b5b818110156128fa576128ef5f826128c4565b6001810190506128dd565b5050565b601f82111561293f57612910816126d1565b612919846127fc565b81016020851015612928578190505b61293c612934856127fc565b8301826128dc565b50505b505050565b5f82821c905092915050565b5f61295f5f1984600802612944565b1980831691505092915050565b5f6129778383612950565b9150826002028217905092915050565b61299082611ff3565b67ffffffffffffffff8111156129a9576129a86122ce565b5b6129b3825461261c565b6129be8282856128fe565b5f60209050601f8311600181146129ef575f84156129dd578287015190505b6129e7858261296c565b865550612a4e565b601f1984166129fd866126d1565b5f5b82811015612a24578489015182556001820191506020850194506020810190506129ff565b86831015612a415784890151612a3d601f891682612950565b8355505b6001600288020188555050505b505050505050565b5f606082019050612a695f83018661212b565b612a766020830185612236565b8181036040830152612a888184612045565b9050949350505050565b5f81519050919050565b5f82825260208201905092915050565b5f612ab682612a92565b612ac08185612a9c565b9350612ad081856020860161200d565b612ad981612035565b840191505092915050565b5f608082019050612af75f83018761212b565b612b04602083018661212b565b612b116040830185612236565b8181036060830152612b238184612aac565b905095945050505050565b5f81519050612b3c81611f6b565b92915050565b5f60208284031215612b5757612b56611f38565b5b5f612b6484828501612b2e565b91505092915050565b7f7b000000000000000000000000000000000000000000000000000000000000005f82015250565b5f612ba1600183612681565b9150612bac82612b6d565b600182019050919050565b7f226e616d65223a202200000000000000000000000000000000000000000000005f82015250565b5f612beb600983612681565b9150612bf682612bb7565b600982019050919050565b7f20436572746966696361746520230000000000000000000000000000000000005f82015250565b5f612c35600e83612681565b9150612c4082612c01565b600e82019050919050565b7f222c0000000000000000000000000000000000000000000000000000000000005f82015250565b5f612c7f600283612681565b9150612c8a82612c4b565b600282019050919050565b7f226465736372697074696f6e223a2022436572746966696361746520666f72205f8201527f636f6d706c6574696e672074686520636f75727365222c000000000000000000602082015250565b5f612cef603783612681565b9150612cfa82612c95565b603782019050919050565b7f2261747472696275746573223a205b00000000000000000000000000000000005f82015250565b5f612d39600f83612681565b9150612d4482612d05565b600f82019050919050565b7f2274726169745f74797065223a2022436f75727365204e616d65222c000000005f82015250565b5f612d83601c83612681565b9150612d8e82612d4f565b601c82019050919050565b7f2276616c7565223a2022000000000000000000000000000000000000000000005f82015250565b5f612dcd600a83612681565b9150612dd882612d99565b600a82019050919050565b7f22000000000000000000000000000000000000000000000000000000000000005f82015250565b5f612e17600183612681565b9150612e2282612de3565b600182019050919050565b7f7d2c0000000000000000000000000000000000000000000000000000000000005f82015250565b5f612e61600283612681565b9150612e6c82612e2d565b600282019050919050565b7f2274726169745f74797065223a20224f434944222c00000000000000000000005f82015250565b5f612eab601583612681565b9150612eb682612e77565b601582019050919050565b7f7d000000000000000000000000000000000000000000000000000000000000005f82015250565b5f612ef5600183612681565b9150612f0082612ec1565b600182019050919050565b7f5d000000000000000000000000000000000000000000000000000000000000005f82015250565b5f612f3f600183612681565b9150612f4a82612f0b565b600182019050919050565b5f612f5f82612b95565b9150612f6a82612bdf565b9150612f7682876126e3565b9150612f8182612c29565b9150612f8d828661268b565b9150612f9882612c73565b9150612fa382612ce3565b9150612fae82612d2d565b9150612fb982612b95565b9150612fc482612d77565b9150612fcf82612dc1565b9150612fdb82856126e3565b9150612fe682612e0b565b9150612ff182612e55565b9150612ffc82612b95565b915061300782612e9f565b915061301282612dc1565b915061301e828461268b565b915061302982612e0b565b915061303482612ee9565b915061303f82612f33565b915061304a82612ee9565b915081905095945050505050565b7f646174613a6170706c69636174696f6e2f6a736f6e3b6261736536342c0000005f82015250565b5f61308c601d83612681565b915061309782613058565b601d82019050919050565b5f6130ac82613080565b91506130b8828461268b565b915081905092915050565b5f6040820190506130d65f83018561212b565b6130e36020830184612236565b9392505050565b7f4e487b71000000000000000000000000000000000000000000000000000000005f52601260045260245ffd5b5f6131218261209d565b915061312c8361209d565b92508261313c5761313b6130ea565b5b828204905092915050565b5f6131518261209d565b915061315c8361209d565b925082820261316a8161209d565b915082820484148315176131815761318061279c565b5b509291505056fe4142434445464748494a4b4c4d4e4f505152535455565758595a6162636465666768696a6b6c6d6e6f707172737475767778797a303132333435363738392b2fa264697066735822122042484b076a5041edbb1985f6049fe8622fd0f8081881cef6a4946ba512fe759964736f6c63430008160033",
  "linkReferences": {},
  "deployedLinkReferences": {}
}